{
    "contractName": "NameStorage",
    "abi": [
        {
            "inputs": [],
            "name": "age",
            "outputs": [
                {
                    "internalType": "uint256",
                    "name": "",
                    "type": "uint256"
                }
            ],
            "stateMutability": "view",
            "type": "function",
            "constant": true
        },
        {
            "inputs": [],
            "name": "name",
            "outputs": [
                {
                    "internalType": "string",
                    "name": "",
                    "type": "string"
                }
            ],
            "stateMutability": "view",
            "type": "function",
            "constant": true
        },
        {
            "inputs": [
                {
                    "internalType": "string",
                    "name": "_name",
                    "type": "string"
                }
            ],
            "name": "setName",
            "outputs": [],
            "stateMutability": "nonpayable",
            "type": "function"
        },
        {
            "inputs": [
                {
                    "internalType": "uint256",
                    "name": "_age",
                    "type": "uint256"
                }
            ],
            "name": "setAge",
            "outputs": [],
            "stateMutability": "nonpayable",
            "type": "function"
        }
    ],
    "bytecode": "0x60806040526040518060400160405280600681526020017f736572656e6500000000000000000000000000000000000000000000000000008152506000908051906020019061004f929190610062565b5034801561005c57600080fd5b50610165565b82805461006e90610134565b90600052602060002090601f01602090048101928261009057600085556100d7565b82601f106100a957805160ff19168380011785556100d7565b828001600101855582156100d7579182015b828111156100d65782518255916020019190600101906100bb565b5b5090506100e491906100e8565b5090565b5b808211156101015760008160009055506001016100e9565b5090565b7f4e487b7100000000000000000000000000000000000000000000000000000000600052602260045260246000fd5b6000600282049050600182168061014c57607f821691505b60208210810361015f5761015e610105565b5b50919050565b6104b6806101746000396000f3fe608060405234801561001057600080fd5b506004361061004c5760003560e01c806306fdde0314610051578063262a9dff1461006f578063c47f00271461008d578063d5dcf127146100a9575b600080fd5b6100596100c5565b60405161006691906102b5565b60405180910390f35b610077610153565b60405161008491906102f0565b60405180910390f35b6100a760048036038101906100a2919061037a565b610159565b005b6100c360048036038101906100be91906103f3565b61016f565b005b600080546100d29061044f565b80601f01602080910402602001604051908101604052809291908181526020018280546100fe9061044f565b801561014b5780601f106101205761010080835404028352916020019161014b565b820191906000526020600020905b81548152906001019060200180831161012e57829003601f168201915b505050505081565b60015481565b81816000919061016a929190610179565b505050565b8060018190555050565b8280546101859061044f565b90600052602060002090601f0160209004810192826101a757600085556101ee565b82601f106101c057803560ff19168380011785556101ee565b828001600101855582156101ee579182015b828111156101ed5782358255916020019190600101906101d2565b5b5090506101fb91906101ff565b5090565b5b80821115610218576000816000905550600101610200565b5090565b600081519050919050565b600082825260208201905092915050565b60005b8381101561025657808201518184015260208101905061023b565b83811115610265576000848401525b50505050565b6000601f19601f8301169050919050565b60006102878261021c565b6102918185610227565b93506102a1818560208601610238565b6102aa8161026b565b840191505092915050565b600060208201905081810360008301526102cf818461027c565b905092915050565b6000819050919050565b6102ea816102d7565b82525050565b600060208201905061030560008301846102e1565b92915050565b600080fd5b600080fd5b600080fd5b600080fd5b600080fd5b60008083601f84011261033a57610339610315565b5b8235905067ffffffffffffffff8111156103575761035661031a565b5b6020830191508360018202830111156103735761037261031f565b5b9250929050565b600080602083850312156103915761039061030b565b5b600083013567ffffffffffffffff8111156103af576103ae610310565b5b6103bb85828601610324565b92509250509250929050565b6103d0816102d7565b81146103db57600080fd5b50565b6000813590506103ed816103c7565b92915050565b6000602082840312156104095761040861030b565b5b6000610417848285016103de565b91505092915050565b7f4e487b7100000000000000000000000000000000000000000000000000000000600052602260045260246000fd5b6000600282049050600182168061046757607f821691505b60208210810361047a57610479610420565b5b5091905056fea26469706673582212206e5751067d19f805f8d9334d195985e8cccedab956302c9d6c6c5ac2fa0f4aa164736f6c634300080e0033",
    "immutableReferences": {},
    "source": "// SPDX-License-Identifier: NONE\r\npragma solidity 0.8.14;\r\n\r\n\r\ncontract NameStorage {\r\n    \r\n    string public name = \"serene\";\r\n    uint public age;\r\n\r\n    function setName(string calldata _name) public {\r\n        name = _name;\r\n    }\r\n\r\n    function setAge(uint _age) public {\r\n        age = _age;\r\n    }\r\n}",
    "sourcePath": "C:/projects/Solidity40days/day1/contracts/NameStorage.sol",
    "compiler": {
        "name": "solc",
        "version": "0.8.14+commit.80d49f37.Emscripten.clang"
    },
    "schemaVersion": "3.4.1",
    "updatedAt": "2022-05-29T11:34:26.680Z",
    "networkType": "ethereum",
    "devdoc": {
        "kind": "dev",
        "methods": {},
        "version": 1
    },
    "userdoc": {
        "kind": "user",
        "methods": {},
        "version": 1
    }
}